:020000040800F2
:1000000000000120756C0008C9260008CB260008F6
:10001000CD260008CF260008D126000800000000E9
:10002000000000000000000000000000A1690008BE
:10003000D326000800000000416A0008436500085C
:10004000BD6C0008BD6C0008BD6C0008BD6C0008EC
:10005000BD6C0008BD6C0008BD6C0008BD6C0008DC
:10006000BD6C0008BD6C0008BD6C0008D5260008FA
:10007000BD6C0008E5260008BD6C0008BD6C0008DA
:10008000BD6C0008BD6C0008BD6C0008BD6C0008AC
:10009000BD6C0008BD6C0008BD6C0008BD6C00089C
:1000A000BD6C0008F5260008BD6C0008BD6C00089A
:1000B000BD6C0008BD6C0008BD6C0008BD6C00087C
:1000C000BD6C0008BD6C0008BD6C0008BD6C00086C
:1000D000BD6C000805270008BD6C00081527000846
:1000E000BD6C0008BD6C0008BD6C0008BD6C00084C
:1000F000BD6C0008BD6C0008BD6C0008BD6C00083C
:10010000BD6C0008BD6C0008BD6C0008BD6C00082B
:10011000BD6C0008BD6C0008BD6C0008BD6C00081B
:10012000BD6C0008BD6C0008BD6C0008BD6C00080B
:1001300000000000000000000000000000000000BF
:1001400000000000000000000000000000000000AF
:10015000000000000000000000000000000000009F
:10016000000000000000000000000000000000008F
:10017000000000000000000000000000000000007F
:10018000000000000000000000000000000000006F
:10019000000000000000000000000000000000005F
:1001A000000000000000000000000000000000004F
:1001B000000000000000000000000000000000003F
:1001C000000000000000000000000000000000002F
:1001D000000000000000000000000000000000001F
:0401E0005FF8E0F1F3
:1001F0000348044B834202D0034B03B118477047B6
:10020000740000207400002000000000054806492A
:100210000B1AD90F01EBA301491002D0034B03B114
:100220001847704774000020740000200000000090
:1002300010B5064C237843B9FFF7DAFF044B13B12E
:100240000448AFF300800123237010BD7400002028
:1002500000000000C06C000808B5044B1BB1044945
:100260000448AFF30080BDE80840CFE7000000007D
:1002700078000020C06C0008014B1868704700BF70
:100280000000002070B50D4E0D4D761BB61006D047
:10029000002455F8043B01349847A642F9D1094E91
:1002A000094D06F00DFD761BB61006D0002455F85A
:1002B000043B01349847A642F9D170BD1C86000862
:1002C0001C860008208600081C860008844641EA37
:1002D000000313F0030349D1403A23D30B680360B2
:1002E0004B6843608B688360CB68C3600B690361B4
:1002F0004B6943618B698361CB69C3610B6A03629C
:100300004B6A43628B6A8362CB6AC3620B6B036383
:100310004B6B43638B6B8363CB6BC3634030403168
:10032000403ADBD230320BD30B6803604B6843603A
:100330008B688360CB68C36010301031103AF3D201
:100340000C3205D351F8043B40F8043B043AF9D28F
:10035000043208D0D2071CBF11F8013B00F8013B62
:1003600001D30B8803806046704700BF082A13D36F
:100370008B07B1D010F00303AED0C3F10403D21A3F
:10038000DB071CBF11F8013B00F8013BA4D331F897
:10039000023B20F8023B9FE7043AD9D3013A11F817
:1003A000013B00F8013BF9D20B7803704B784370A6
:1003B0008B78837060467047830730B548D0541EF1
:1003C000002A3FD00346CAB201E0013C3AD303F809
:1003D000012B9D07F9D1032C2DD9CDB245EA052576
:1003E0000F2C45EA054536D9A4F1100222F00F0C76
:1003F00003F1200EE6444FEA121C03F1100242E919
:10040000045542E9025510327245F8D10CF101024F
:1004100014F00C0F03EB021204F00F0C13D0ACF12C
:10042000040323F003030433134442F8045B9342B0
:10043000FBD10CF003042CB1CAB21C4403F8012B0D
:100440009C42FBD130BD64461346002CF4D1F9E741
:1004500003461446BFE71A46A446E0E70EB410B5BB
:10046000044683B008B183695BB106AB2046059AA8
:10047000A168019300F04AFD03B0BDE8104003B04D
:10048000704700F055FBF0E70FB410B50A4B82B08F
:100490001C680CB1A3695BB105AB2046049AA16846
:1004A000019300F033FD02B0BDE8104004B0704786
:1004B000204600F03DFBEFE70000002070B5064647
:1004C0000D46002830D0836963B384682C4B9C426E
:1004D00034D02C4B9C423CD02B4B9C4208BFF46840
:1004E000A3891B072ED5236963B3297839B932E074
:1004F00023685A1C2260197015F8011F59B3A368AC
:10050000013B002BA360F3DAA269934201DB0A29C5
:10051000EED12246304600F041F80130ECD14FF0E8
:10052000FF3070BD00F004FBB369B468002BCDD17F
:10053000304600F0FDFA124B9C42CAD17468A38980
:100540001B07D0D42146304600F08AF80028CCD0D2
:10055000E5E7B468C4E7A368013B002BA36008DAB1
:1005600022460A21304600F019F80130D7D00A207F
:1005700070BD0A2223681046591C21601A7070BD94
:100580001C6D0008FC6C0008DC6C0008024B014686
:100590001868FFF793BF00BF00000020F8B50646BB
:1005A0000D46144608B1836943B3254B9C422AD0BB
:1005B000244B9C4229D0244B9C4208BFF468A2697A
:1005C000A389A2601A0722D5236903B3226861694F
:1005D000D31AEDB299422F4629DD0133A1680139C2
:1005E000A160511C2160157062699A4216D0A389DE
:1005F000DB0701D50A2D11D03846F8BD00F098FA76
:100600000F4B9C42D4D17468D9E7B468D7E7214630
:10061000304600F025F838B92369D7E7214630463F
:1006200000F024F90028E7D04FF0FF37E4E7214637
:10063000304600F01BF90028F6D101232268CDE7EF
:100640001C6D0008FC6C0008DC6C000803460A46C0
:10065000024908681946FFF7A1BF00BF000000204B
:100660003C4B70B51D6806460C460DB1AB69E3B155
:10067000394B9C421FD0394B9C424DD0384B9C4249
:1006800008BFEC68B4F90C3018079AB219D5216983
:1006900011B312F001002FD000256069A56040421F
:1006A000A06100292ED0002070BD284600F040FA3D
:1006B000294B9C42DFD16C68B4F90C3018079AB210
:1006C000E5D4D1063ED5520728D4216943F008036A
:1006D000A3819AB20029DCD102F42070B0F5007F2A
:1006E000D7D02146304600F087FAB4F90C302169A2
:1006F0009AB212F00100CFD1950758BF6069A0608F
:100700000029D0D1120658BF0846CDD543F040038A
:100710004FF0FF30A38170BDAC68B3E7616B51B19E
:1007200004F14402914204D0304600F0F3FAB4F9E7
:100730000C30002262630022216923F02403C4E903
:100740000012C3E7092243F0400332604FF0FF304C
:10075000A38170BD000000201C6D0008FC6C000827
:10076000DC6C0008F8B58B890C46190707463BD4AA
:100770006268002A55DDE66A002E50D000223D68EE
:100780003A6013F4805250D101233846216AB047B1
:10079000421C5CD0A389E66A5B0705D56368C01A72
:1007A000636B0BB1236CC01A0246216A00233846E2
:1007B000B047411C3BD13B68002B38D01D2B01D0EA
:1007C000162B4BD100232269C4E90023616B3D60E5
:1007D00029B304F14403994202D0384600F09AFA52
:1007E000002318466363F8BD2669C6B19A0718BF8F
:1007F0000023256808BF63692660AD1BA3600CE079
:100800002B463246D4F828C03846216AE047B0F17A
:10081000000CA5EB0C05664412DD002DF0DC002079
:10082000F8BD226C002AA6DCF9E7606DB4E700226F
:10083000236962602360A389DB04C7D56065C5E7CF
:10084000A3894FF0FF3043F04003A381F8BD3B681C
:10085000002B9FD01D2B06D0162B04D0A38943F06C
:100860004003A381F8BD00203D60F8BD38B50B6999
:10087000BBB10C46054608B18369B3B10D4B9C4230
:1008800011D00D4B9C4213D00C4B9C4208BFEC681E
:10089000B4F90C302BB121462846BDE83840FFF7AB
:1008A00061BF002038BD6C68F2E700F041F9E5E770
:1008B000AC68EDE71C6D0008FC6C0008DC6C0008FF
:1008C00038B540B303690446E3B1174B1D680DB159
:1008D000AB69CBB1154B9C420FD0154B9C4221D03C
:1008E000144B9C4208BFEC68B4F90C3053B121465C
:1008F0002846BDE83840FFF735BF6C68B4F90C30C6
:10090000002BF4D1002038BD284600F011F9074B28
:100910009C42E2D1F1E7084B08491868BDE838402D
:1009200000F046B9AC68DFE7000000201C6D00084D
:10093000FC6C0008DC6C0008D86C00086D0800082E
:1009400000207047014900F033B900BF6D0800086E
:1009500000207047682270B54D1E02FB05F50E465B
:1009600005F1740100F03CFA044640B100210C305E
:10097000C4E9016005F168022160FFF71DFD204612
:1009800070BD00BF274B2DE9F0411E680746B369D3
:1009900053B34FF004084836D6E90134013B04D57F
:1009A0001EE05A1C04F168041AD0B4F90C50013B43
:1009B000002DF6D11C4B08222946C4E90055C4E994
:1009C0000253C4E904556566A56104F15C00FFF7B4
:1009D000F3FCC4E90D55C4E912552046BDE8F08189
:1009E00035682DB12E46D7E7304600F01FF8D0E726
:1009F0004FF4D671384600F0F3F9044668B105604B
:100A000029460546C0F804800C304FF4D072A0602F
:100A1000FFF7D2FC34602E46BEE70C2330603B600B
:100A2000DBE700BFD86C00080100FFFF0023334A5A
:100A30002DE9F0471268C0E912339042036508BF00
:100A400001232F4908BF836181620546FFF79AFFA2
:100A5000034628466B60FFF795FFA86028460024F0
:100A6000FFF790FF04236E68DFF898A0DFF89890F6
:100A7000DFF89880264FE8600822F3602146C6E937
:100A80000044C6E904447466B460B46106F15C00D5
:100A9000FFF792FC1F4BC6E9086AC6E90A9837635C
:100AA000AE680822F3602146C6E90044C6E9044462
:100AB0007466B460B46106F15C00FFF77DFC164B10
:100AC000C6E9086AC6E90A983763EE682146F3600A
:100AD0000822C6E90044C6E904447466B460B461FF
:100AE00006F15C00FFF768FC0123C6E9086AC6E965
:100AF0000B87C6F82890AB61BDE8F087D86C00087A
:100B000045090008B5150008DD1500081D16000888
:100B10003D1600080900010012000200024B0349C3
:100B2000186800F045B800BFD86C00086D080008D0
:100B3000836903B97AE77047704700BF704700BF09
:100B4000704700BF704700BF024B0349186800F0B0
:100B50000FB800BF0000002041090008024B034904
:100B6000186800F005B800BF000000205109000817
:100B70002DE9F0410026884600F14807D7E90154E5
:100B8000013D0ED4A389013D012B06D9B4F90E30E5
:100B9000013302D02046C04706436B1C04F16804B1
:100BA000F0D13F68002FE9D13046BDE8F08100BFA9
:100BB0002DE9F8434FF000090746884600F1480642
:100BC000D6E90154013D10D4A389013D012B08D978
:100BD000B4F90E30013304D021463846C04749EA03
:100BE00000096B1C04F16804EED13668002EE7D1D1
:100BF0004846BDE8F88300BFF0B58B890C469907DD
:100C000097B007D5012204F14703C4E904322360F9
:100C100017B0F0BDB4F90E10054600292DDB6A4669
:100C200000F038FD002827DB019E4FF4806706F4B2
:100C30007046A6F50056B6FA86F639462846760975
:100C400000F0CEF830B3A3891A4A43F08003AA62B9
:100C5000C4E90407A3812060002ED9D02846B4F946
:100C60000E1000F0A3FE0028D2D0A38923F00303C6
:100C700043F00103A381CBE7A38913F0800F14BFD6
:100C800040274FF4806728463946002600F0A8F830
:100C90000028D8D1B4F90C309A05B9D4012123F039
:100CA000030304F1470243F00203C4E90421A381D2
:100CB0002260ADE74509000870B50C46B1F90E1089
:100CC000164600291D4696B013DB6A4600F0E2FC8A
:100CD00000280EDB01994FF4806301F47041A1F507
:100CE0000051B1FA81F1002049092960336016B042
:100CF00070BD0022B4F90C302A601B0604D54023D5
:100D00000020336016B070BD4FF480630020336064
:100D100016B070BD002952D038B551F8043C0C1FF4
:100D2000002BB8BFE418054600F02CFF2B4A1368CF
:100D3000002B45D0A3420CD921686018834228D0EB
:100D4000636028461460BDE8384000F01DBFA34230
:100D50000FD81A465B68002BF9D1116850188442ED
:100D60001DD034D3636054602846BDE8384000F09D
:100D70000BBF11685018A04215D028D82168601800
:100D80008342EFD118685B680144C4E900135460E2
:100D9000EAE718685B680144C4E90013D1E72368F7
:100DA00019441160E0E72068014450188342116043
:100DB000DAD1D3E900030144C2E90013D4E7704754
:100DC000284663601460BDE8384000F0DDBE0C23A7
:100DD00028462B60BDE8384000F0D6BE90000020C9
:100DE000F8B5CD1C25F0030508350C2D38BF0C25B2
:100DF000002D064623DBA94221D8264F00F0C2FE73
:100E00003A6822B3144603E063682246FBB11C46ED
:100E100023685B1BF8D40B2B15D8636894420CBF76
:100E20003B605360304600F0AFFE04F10B00231D21
:100E300020F00700C21A01D01B1AA350F8BD0C23E2
:100E400000203360F8BD23601C442560EAE7796820
:100E5000D1B12946304600F09BFB431C01460CD023
:100E6000C41C24F00304A04205D03046611A00F0EF
:100E70008FFB013001D02560D4E70C23304633606E
:100E800000F082FE0020F8BD304600F081FB786063
:100E9000DFE700BF900000209368013B002B9360C8
:100EA00005DAD2F818C0634507DB0A2905D01368B4
:100EB000581C1060084619707047FFF76FBB00BFE1
:100EC0009BB1F8B5134406460F46541E5D1E01E063
:100ED000AC4208D03A46304614F8011FFFF7DCFF59
:100EE000431CF5D1F8BD0020F8BD0020704700BFBD
:100EF000936810B5144613B91846536010BD00F03E
:100F0000DDFB0023C4E9013310BD00BF2DE9F04F24
:100F10000E4692461C4607469FB018B18369002BC7
:100F200000F0A880954B9E4200F0AA80944B9E4210
:100F300000F0B580934B9E4208BFFE68B389180746
:100F400040F1A3803369002B00F09F800023202212
:100F50000B9330239AF80010059401258A4C8DF8E4
:100F600031208DF8323000297DD0D1460B4604E087
:100F700019F8013F002B00F09480252BF8D1B9EB34
:100F80000A0B40F0918099F80030002B6BD00023C1
:100F90004FF0FF3209F10109CDE9072306930993C8
:100FA0008DF85B301C9304E0001B05FA00F0184339
:100FB0000690CA460522204619F8011B00F01EFDC6
:100FC000069B0028F0D1D90644BF20228DF85B2073
:100FD0001A0748BF2B229AF8001048BF8DF85B20F3
:100FE0002A2972D1059A1168043200290592C0F2AB
:100FF000A08009919AF801100AF1010A2E2976D0F1
:10100000DFF888910322484600F0F8FC48B14022FE
:10101000069BA0EB090002FA00F003430AF1010A63
:1010200006931AF8011B062259488DF8301000F07B
:10103000E5FC002800F08380564B002B6CD005A9FE
:10104000009132463846544B06A9AFF30080039016
:10105000039B013307D00B9B039A9AF800101344AB
:101060000B93002981D1B3895B0615D40B981FB06F
:10107000BDE8F08FFFF75CFD404B9E427FF456AF1A
:101080007E68B38918073FF55DAF31463846FFF7F4
:10109000E7FA00283FF45AAF4FF0FF30E7E7BE68A9
:1010A0004CE7B9EB0A0BDED0D046CAF1010A03E0E7
:1010B000934538D918F8011F32463846FFF7ECFE41
:1010C00001300AEB0802F3D1CDE7A1F13002092A81
:1010D00094D8099B1AF8011F03EB830302EB430327
:1010E000A1F13002092AF5D92E29099388D19AF85D
:1010F00001102A292DD1059B0AF102001A68043338
:10110000002A0593B8BF4FF0FF339AF802100792F8
:101110008246B8BF079373E7059B073323F00703A5
:101120000833059397E70B9A99F800305A440B92CD
:101130002BE7494243F00203099106935AE705A9B8
:10114000009132463846144B06A900F0CBF80390C4
:101150007EE70023A1F13002092A0AF1010A079370
:101160003FF64EAF1AF8011F03EB830302EB430374
:10117000A1F13002092AF5D9079341E71C6D000857
:10118000FC6C0008DC6C0008E0850008E8850008BD
:10119000EC85000800000000C10E00088C4600B578
:1011A00086461346034A714610685DF804EB6246B2
:1011B000FFF7ACBE000000202DE9F04791461E4627
:1011C0000A698B680C469A42B8BF1A46C9F80020D3
:1011D00091F843300546DDF8208013B10132C9F89B
:1011E0000020226891065DD5D9F800300233C9F895
:1011F0000030226812F0060F11461ED1E168CB1AAA
:10120000002BD8BF114618DD002704F1190A06E0AB
:10121000D9F80030E268A2EB030CBC450CDD0123D9
:10122000524631462846C047013007F10107EFD149
:101230004FF0FF30BDE8F087216894F84330003B61
:1012400018BF01238A060AD53021E21882F843101C
:1012500094F845105A1C2244023382F84310314658
:10126000284604F14302C0470130E1D0236803F06F
:101270000603042B1DD0A3682269934225DD0027B5
:101280009B1A1F4404F11A09002401E0BC421CDA35
:1012900001234A4631462846C047013004F1010483
:1012A000F4D1C5E712F0060F12D0003B18BF01239E
:1012B000D5E7D9F80030E1682269C91AA36821EAA4
:1012C000E1779342DCDC0029DCDC0020BDE8F0871C
:1012D000E168D9F80030CB1A002BD8BF114693DC57
:1012E000ABE700BF2DE9F04317460A7E85B00C46F8
:1012F000064698460C9D01F1430C002A33D0A2F11A
:101300005803D9B2202967D8202B65D8DFE813F01D
:10131000DD00640064006400640064006400640034
:10132000640064006400A3006E0064006400640054
:1013300064006E00640064006400640021007F00AB
:10134000BF0064006400AE0064007F0064006400BD
:10135000E40023681A0640F102812B686269191DB6
:1013600029601B681A600023E14623613B46214641
:101370003046CDF8008003AAFFF71EFF013020D0D1
:101380004A46394630462369C047013019D02368A0
:10139000E0689B07039919D5431A002B16DD002539
:1013A00004F1190904E0E0680399431AAB420DDD2A
:1013B00001234A4639463046C047013005F1010550
:1013C000F1D14FF0FF3005B0BDE8F0838842B8BFDF
:1013D000084605B0BDE8F083012384F8422004F1FB
:1013E00042092361002384F84330BFE723681906CC
:1013F00002D45A0600F1BF8029680A6804312960C6
:101400001146002A6ADB0A25DFF87CE110E0236838
:10141000180640F19A802B68191D296019686F2AF7
:101420000CBF08250A25DFF860E1002384F843306B
:101430006268002AA2607DDB236823F00403236036
:10144000002959D1002A77D1E146082D63D0ACEBB1
:10145000090323618AE701222B6804F14209196814
:1014600004332B6084F842102261BBE72B68002113
:101470001A1D2A60D3F800906268484600F0BEFA50
:1014800000287FD0A0EB090060602061AAE72368F4
:1014900043F0200323607822DFF8F0E084F8452051
:1014A0002A68111D2960190642D45D0640D51188AD
:1014B000D80744BF43F020032360002943D12368A9
:1014C000102523F020032360AFE75823DFF8B8E0AE
:1014D00084F845302368E3E72368DCE72D2284F8AD
:1014E000432062684942002AA26002DB23F0040321
:1014F00023600A25DFF890E0E146B1FBF5F30A46E8
:1015000005FB131019461EF80030AA4209F8013DE8
:10151000F3D2082D9BD12368D90798D56268236937
:101520009A4294DC302309F1FF3989F800308EE7C4
:101530001168BDE70029DFD19EF8003004F14209AF
:1015400084F8423081E710256FE713F0400F2B68D5
:1015500003F1040129600CBF196819885FE713F0D3
:10156000400F2B68626903F1040129601B6814BFF6
:101570001A801A60F7E62A68B2F9001004322A606D
:101580000A463EE7606880E7F485000808860008A0
:10159000002238B5064D044608462A6005F02AFBAD
:1015A000431C00D038BD2B68002BFBD0236038BD16
:1015B0009800002010B50C46B1F90E1000F00EFB9B
:1015C000002803DB636D0344636510BDA38923F426
:1015D0008053A38110BD00BF002070472DE9F0416A
:1015E0000C46B1F90C101F46CB05054616460BD428
:1015F00021F48051A1813B4632462846B4F90E10B1
:10160000BDE8F04100F01EB8B4F90E10022300222C
:1016100000F0DEF9B4F90C10EAE700BF10B50C4693
:10162000B1F90E1000F0D4F9A389421C0EBF23F4C7
:10163000805343F480536065A38110BDB1F90E104F
:1016400000F016B838B50C46114600228446074D06
:1016500020462A601A46644600F0B2FE431C00D0C1
:1016600038BD2B68002BFBD0236038BD98000020CC
:10167000002238B5064D044608462A6005F0EEFA09
:10168000431C00D038BD2B68002BFBD0236038BD35
:101690009800002070B50026074D04460846114604
:1016A0002E6005F0DEFA431C00D070BD2B68002BC5
:1016B000FBD0236070BD00BF980000209368002B12
:1016C00000F0B7802DE9F04FB1F90C300C46190746
:1016D0008046174683B098B225D523691BB310F016
:1016E00002033D682DD04FF0000B5E46DFF8B8A234
:1016F000002E00F08B80564533465A4628BF53468D
:101700004046216AD4F828C0E047002840F387808B
:10171000BB6883441B1A361ABB60002BE8D100203B
:1017200003B0BDE8F08F21464046FEF799FF002840
:1017300040F03681B4F90C303D6898B210F00203E5
:10174000D1D110F0010976D14E46002E5AD0820533
:10175000D4F808B040F1B580B3455A4600F2CD80C8
:1017600010F4906F00F0CB8023682169A3EB010B8C
:10177000636903EB430A0AEBDA7A0BF101034FEAE0
:101780006A0A33445345524684BF9A46524643053B
:1017900040F1EA8011464046FFF722FB002800F0A6
:1017A000F9805A4621690190FEF790FDA289019BBC
:1017B00022F4906242F08002A28103EB0B002361CD
:1017C0003246AAEB0B03B346C4F814A0A360206012
:1017D000B24600264946019200F058F9A3682168F4
:1017E000019AA3EB0B030A44A3602260B868D144BA
:1017F000A0EB0A00B860002891D0B4F90C0080B2C8
:10180000002EA4D1D5E9009608359EE7D5E900B6AB
:1018100008356DE721464046FFF728F880B3B4F954
:101820000C304FF0FF3043F04003A38103B0BDE81C
:10183000F08F002070471E46AA46994618461D465E
:1018400056B3002832D04A4620682169B24228BFE8
:1018500032468842636904D9A16803EB010B5A45FB
:1018600074DC934265DC2A464046216AD4F828C0DD
:10187000E047B0F1000BD2DDB9EB0B09CAD0012073
:10188000BB685D44A3EB0B03A6EB0B06BB60002B10
:101890003FF445AF002ED4D10AF1080353F8046C8D
:1018A0009A4653F8085C0833002EF7D032460A21D6
:1018B000284600F0A3F8002869D00130A0EB050904
:1018C000C1E72068236998421BD86369B34218D8DE
:1018D0006FF0004CB44528BFB4469CFBF3FC4A466D
:1018E00003FB0CF34046216AD4F828C0E047B0F16E
:1018F000000A94DDA6EB0A0678E7B3463246206874
:1019000066E7B345DA4628BFB2464946524600F07C
:10191000BDF8A3682268A3EB0A035244A3602260C7
:10192000002BE7D121464046FEF7A0FF0028E1D07A
:1019300075E729469346019200F0A8F8A368019A3A
:101940009B1AA36023681A44226095E729465A46E9
:1019500000F09CF8236821465B4440462360FEF774
:1019600085FF002888D05AE7404600F00FF903466B
:1019700000287FF422AF40462169FFF7CBF90C2203
:10198000B4F90C30C8F8002023F0800349E7721C3A
:10199000914659E70C22B4F90C30C8F8002040E712
:1019A0004FF0FF30BCE600BF00FCFF7F002238B5DF
:1019B000064D044608462A6005F058F9431C00D03D
:1019C00038BD2B68002BFBD0236038BD9800002069
:1019D00038B50C46114600228446074D20462A6041
:1019E0001A46644605F044F9431C00D038BD2B6804
:1019F000002BFBD0236038BD980000205FFA81FCEB
:101A0000810710D00346511E2AB90AE09A071846EA
:101A10000AD0013905D3184613F8012B6245F5D1D8
:101A2000704700207047114603290CD80029F8D0D0
:101A30000346014401E08B42F3D0184613F8012B12
:101A40006245F8D1ECE7024610B54CEA0C2444EAB2
:101A500004441046036804326340A3F1013E2EEAB9
:101A6000030313F0803F04D1043903291046F0D852
:101A700051B10346014401E08B4205D0184613F8EA
:101A8000012B6245F8D110BD002010BD88420DD950
:101A90008B1883420AD900EB020CBAB1624613F8E4
:101AA00001CD994202F801CDF9D170470F2A0ED825
:101AB000034602F1FF3C4AB10CF1010C013B8C449E
:101AC00011F8012B614503F8012FF9D1704740EA65
:101AD00001039B074FD1A2F1100370B501F1200C57
:101AE00023F00F0501F1100E00F11004AC441B09A6
:101AF0005EF8105C0EF1100E44F8105C5EF81C5C91
:101B0000103444F81C5C5EF8185C44F8185C5EF80D
:101B1000145CE64544F8145CEAD1013312F00C0F72
:101B200001EB031102F00F0400EB031327D08E46E4
:101B3000043C24F003064FEA940C1E441C1F5EF87C
:101B4000045B44F8045FB442F9D10CF1010402F0E3
:101B5000030203EB840301EB840102F1FF3C4AB171
:101B60000CF1010C013B8C4411F8012B614503F889
:101B7000012FF9D170BD034602F1FF3C9CE72246DC
:101B8000EBE700BF704700BF704700BFF8B51446D1
:101B9000F9B1CAB106460D4600F036F8A04202D3AC
:101BA0002F463846F8BD21463046FFF719F907465B
:101BB0000028F6D022462946FEF788FB3046294603
:101BC000FFF7A8F83846F8BD2746FFF7A3F83846D0
:101BD000F8BD1146BDE8F840FFF702B938B50C462C
:101BE000114600228446074D20462A601A46644664
:101BF00005F024F8431C00D038BD2B68002BFBD027
:101C0000236038BD9800002051F8040C0028A0F192
:101C10000400BCBF0B58C018704700BF08B502686D
:101C2000034B9A4200D008BD01F034FBFBE700BF34
:101C3000002C014072B6FEE700B597B028220021C3
:101C40000CA8FEF7B9FB00230793089309930A93A6
:101C50000B9301930293039304930593069301223C
:101C60000C924FF480330D9310920222139214932E
:101C70004FF4E01315930CA801F048FBC8B90F23EB
:101C8000079302210891002309934FF480620A927E
:101C90000B9307A801F06CFD68B9022301934FF480
:101CA0000043039301A801F05DFE30B917B05DF861
:101CB00004FBFFF7BFFFFFF7BDFFFFF7BBFF00000F
:101CC00008B501F0D5FAFFF7B7FF00F01DF800F0F6
:101CD0009BF900F003F900F0A7FA00F0BFFA00F05A
:101CE000B5F900F041FA04F039FC00F0DBF804F03B
:101CF00047FC2021034801F0E7FF4FF4FA7001F0A0
:101D0000DBFAF6E7000C01402DE9F04188B0002431
:101D100004940594069407942B4B9A6942F01002A0
:101D20009A619A6902F010020092009A9A6942F050
:101D300004029A619A6902F004020192019A9A6976
:101D400042F008029A619A6902F008020292029A2D
:101D50009A6942F480729A619B6903F480730393D9
:101D6000039B1A4E01224FF4D041304601F0A6FFEA
:101D7000174F22462021384601F0A0FF4FF40063A0
:101D800004930125059506950323079304A930467E
:101D900001F074FE4FF4C0430493059506954FF08F
:101DA0000208CDF81C8004A9304601F067FE20230C
:101DB000049305950694CDF81C8004A9384601F0DB
:101DC0005DFE08B0BDE8F081001002400020014037
:101DD000000C014008B50948FEF7D8FB202108484F
:101DE00001F072FF4FF47A7004F044FC01F05EFAE7
:101DF00001460448FEF748FBF0E700BF3C6D0008D1
:101E0000000C0140546D000808B500F02FFB00F0F5
:101E100021FB10231B4A0021084600F037FC0C234D
:101E2000194A1021002000F031FC0C23174A1C2114
:101E3000002000F02BFC0C23154A2821002000F084
:101E400025FC00F0E1FA11E01023124A00216E2077
:101E500000F01CFC104A1378B3FA83F35B0913708B
:101E600000F0D2FA4FF4FA7004F004FC0A4B1B782D
:101E7000002BE9D11023094A00216E2000F006FC56
:101E8000E8E700BF706D0008806D0008906D0008E5
:101E90009C6D0008A86D0008A0000020E4850008E3
:101EA0007047000010B5084C22460021074804F096
:101EB00083FB074B186022460021064804F07CFB98
:101EC000054B186010BD00BFB86D0008D51D000897
:101ED0009C000020091E0008A400002000B585B069
:101EE00000230193029303931E481F4A02604FF49C
:101EF000807282600122027303754FF46022C26116
:101F000043600323036101F01FF9F8B90A23019329
:101F1000012302930223039301A9124801F046F81A
:101F2000B8B90B2301930223029301A90D4801F0D4
:101F30003DF888B90C2301930323029301A90948B2
:101F400001F034F858B905B05DF804FBFFF772FEF4
:101F5000DCE7FFF76FFEE4E7FFF76CFEEAE7FFF769
:101F600069FEF0E7A80000200024014010B586B00B
:101F70000023029303930493059302681E4B9A4235
:101F800001D006B010BD044603F56C439A6942F4D3
:101F900000729A619A6902F400720092009A9A693A
:101FA00042F010029A619B6903F010030193019BB8
:101FB000072302930323039302A9104801F05EFD57
:101FC0000F48104B03600023436083608022C2608F
:101FD0004FF4807202614FF480624261202282617C
:101FE000C36101F07BFE18B9054B23625C62C8E750
:101FF000FFF720FEF8E700BF002401400010014079
:10200000D80000200800024000B583B00E4B5A698A
:1020100042F001025A615B6903F001030193019BE5
:10202000002205210B2002F007F90B2002F03CF9F9
:10203000002205210D2002F0FFF80D2002F034F9F6
:1020400003B05DF804FB00BF0010024008B50B4868
:102050000B4B03600B4B436000238360C3604FF462
:102060008042026143618361C361036202F0CEFA80
:1020700000B908BDFFF7DEFDFBE700BF1C01002033
:1020800000540040A086010010B586B000230293E2
:102090000393049305930268114B9A4201D006B052
:1020A00010BD104CA36943F00803A361A36903F0BA
:1020B00008030093009BC02302931223039303237E
:1020C000059302A9084801F0D9FCE36943F4001321
:1020D000E361E36903F400130193019BDFE700BFB1
:1020E0000054004000100240000C01400268094BFF
:1020F0009A4200D0704782B003F50333DA6942F0A8
:102100000202DA61DB6903F002030193019B02B072
:10211000704700BF0004004000B587B00023029361
:1021200003930493059302680D4B9A4202D007B0C3
:102130005DF804FB03F503339A6942F004029A61E7
:102140009B6903F004030193019BC02302930223C4
:102150000393059302A9034801F090FCE7E700BF51
:10216000000400400008014000B58FB000230A932E
:102170000B930C930D93089309930193029303938C
:1021800004930593069307932548264A0260472245
:102190004260836044F61F62C2600361836100F0A5
:1021A0003BFD58BB4FF480530A930AA91C4800F02A
:1021B0003DFE30BB1A4800F05BFD28BB00230893AE
:1021C000099308A9164800F0B1FE00BB60230193F3
:1021D000002202920392059201A9114800F0ACFD81
:1021E000C0B904220DEB02010D4800F0A5FDA0B915
:1021F0000B48FFF791FF0FB05DF804FBFFF71AFDE6
:10220000D0E7FFF717FDD5E7FFF714FDD6E7FFF797
:1022100011FDDBE7FFF70EFDE3E7FFF70BFDE7E757
:10222000700100200004004008B50A480A4B036012
:102230004FF4E133436000238360C36003610C22E9
:1022400042618361C36102F05EFC00B908BDFFF723
:10225000F1FCFBE7FC0100200038014008B50A480A
:102260000A4B03604FF4E133436000238360C36093
:1022700003610C2242618361C36102F044FC00B936
:1022800008BDFFF7D7FCFBE74402002000480040F0
:1022900070B588B0002304930593069307930368F1
:1022A000404A934205D004463F4A934233D008B097
:1022B00070BD3E4B9A6942F480429A619A6902F479
:1022C00080420092009A9A6942F004029A619B69E6
:1022D00003F004030193019B4FF400730493022362
:1022E000059303230793324D04A9284601F0C6FB4A
:1022F0004FF48063049300240594069404A92846AF
:1023000001F0BCFB22460521252001F095FF252088
:1023100001F0CAFFCBE7254BDA6942F48022DA618B
:10232000DA6902F480220292029A9A6942F0080263
:102330009A619B6903F008030393039B4FF4806346
:10234000049302230593032307931A4E04A93046EE
:1023500001F094FB4FF40063049300250595069566
:1023600004A9304601F08AFB1348144B0360456012
:1023700085608023C360056145618561C56101F0A9
:10238000ADFC58B90C4BE3635C62002205212720A9
:1023900001F052FF272001F087FF88E7FFF74AFC92
:1023A000F0E700BF00380140004800400010024044
:1023B00000080140000C0140B8010020300002403C
:1023C00010B514464FF47A7392B2024802F0CBFB78
:1023D000204610BDFC01002000B587B08DF8170025
:1023E00071B900220A230293012301930DF1170111
:1023F00000917821034802F0E7F907B05DF804FB8B
:102400004022EFE71C01002038B500250DE0104BFD
:1024100003EBC4030121585DFFF7DEFF0134E4B292
:1024200014F0800FF3D00135EDB2072D0FD8A5F1D0
:1024300050000021C0B2FFF7CFFF00210846FFF790
:10244000CBFF00211020FFF7C7FF0024E8E738BDCD
:102450008C02002008B54FF4906200210248FDF77D
:10246000ABFFFFF7D1FF08BD8C02002008B5C820E4
:1024700000F022FF0021AE20FFF7AEFF002108464A
:10248000FFF7AAFF00211020FFF7A6FF0021402040
:10249000FFF7A2FF00218120FFF79EFF0021CF2040
:1024A000FFF79AFF0021A120FFF796FF0021C82027
:1024B000FFF792FF0021A620FFF78EFF0021A82042
:1024C000FFF78AFF00213F20FFF786FF0021D3207E
:1024D000FFF782FF00210846FFF77EFF0021D5208D
:1024E000FFF77AFF00218020FFF776FF0021D92037
:1024F000FFF772FF0021F120FFF76EFF0021DA20C5
:10250000FFF76AFF00211220FFF766FF0021DB20A2
:10251000FFF762FF00214020FFF75EFF002120202F
:10252000FFF75AFF00210220FFF756FF00218D2000
:10253000FFF752FF00211420FFF74EFF0021A420D7
:10254000FFF74AFF0021A620FFF746FF0021AF203A
:10255000FFF742FFFFF77EFF08BD000010F0800F7D
:102560000ED13F290CD8CA0801F00701012303FA54
:1025700001F1C9B2034B03EBC000835C19438154E2
:10258000704700BF8C02002010F0800F18D13F2947
:1025900016D84FEAD10C01F00701012303FA01F12B
:1025A000C9B2084A02EBC00010F80C30DB43DBB2C2
:1025B00000F80C300B4300F80C30DB4300F80C3013
:1025C000704700BF8C0200202DE9F04F83B0804699
:1025D00089461F4613F0070318BF012303EBD703F7
:1025E000790801FB03F3DBB20193203A5FFA82FB27
:1025F0004C464FF0000A2EE00BEB4B03204A02EB57
:10260000830313F80A5036E01E4B03EB0B1313F849
:102610000A5030E021464046FFF7B6FF6D00EDB2AC
:102620000134E4B2A4EB0903BB420BD00136F6B28D
:10263000072E0CD815F0800FECD021464046FFF74E
:102640008DFFEBE708F101085FFA88F84C460AF1C4
:10265000010A5FFA8AFA019B9A450ED20C2FCBD061
:10266000102FD1D0182F08D10BEBCB03064A02EB69
:10267000830313F80A500026DAE703B0BDE8F08FB1
:10268000DC6D00085072000840780008F8B5044678
:102690000F4615461E4600E001352A78A2F12000BB
:1026A000C0B25E280FD8334639462046FFF78CFF6C
:1026B00004EB5604E4B2C6F180039C42ECDD023721
:1026C000FFB20024E8E7F8BDFEE7FEE7FEE7FEE71D
:1026D000FEE7704708B5024801F026FC08BD00BFC0
:1026E000D800002008B5024801F01EFC08BD00BF5C
:1026F000B801002008B5024800F08BF908BD00BF02
:102700000C07002008B5024802F020FB08BD00BFFE
:10271000FC01002008B5024802F018FB08BD00BF0C
:102720004402002000B583B0114B9A6942F00102C7
:102730009A619A6902F001020092009ADA6942F005
:102740008052DA61DB6903F080530193019B002220
:102750000F216FF0010001F06FFD064A536823F06E
:10276000E06343F00073536003B05DF804FB00BF07
:10277000001002400000014030B589B004461E4BF5
:102780009A6942F400629A619B6903F400630193C1
:10279000019B02A903A801F0C7F801F0B5F80346B0
:1027A0001648A0FB03239B0C013B1548154A026009
:1027B00040F2E732C26043600023036183608361BB
:1027C00000F02AFA054610B1284609B030BD0C4881
:1027D00000F0DEF805460028F6D1192001F064FD6E
:1027E0000F2C01D90125EFE700222146192001F025
:1027F00023FD054B1C60E7E70010024083DE1B430E
:102800000C070020002C01406800002030B4036A4F
:10281000026A22F0010202624268846924F07304B1
:102820000D682C4323F0020C8B6843EA0C03104D17
:10283000A84203D005F50065A84205D123F008039E
:10284000CD682B4323F00403094DA84203D005F5BE
:102850000065A84205D122F440724D692A438D6972
:102860002A43426084614A684263036230BC704715
:10287000002C014030B4036A026A22F480720262C2
:102880004268C46924F0730C0C6844EA0C0523F414
:1028900000738C6843EA0423114CA04203D004F572
:1028A0000064A04206D123F40063CC6843EA042309
:1028B00023F480630A4CA04203D004F50064A042D4
:1028C00007D122F440524C6942EA04128C6942EA70
:1028D00004124260C5614A68C263036230BC70473B
:1028E000002C014030B4036A026A22F48052026272
:1028F0004468C26922F4E6420D6842EA052223F4E4
:1029000000538D6843EA0533094DA84203D005F50D
:102910000065A84204D124F480444D6944EA85143A
:102920004460C2614A680264036230BC704700BF01
:10293000002C014010B4036A046A24F0010404620C
:10294000846924F0F00C4CEA021223F00A030B43D2
:102950008261036210BC704710B4036A046A24F0F9
:1029600010040462846924F4704C4CEA023223F0AF
:10297000A00343EA01138261036210BC70478368BD
:1029800023F070030B4343F007038360704700009C
:1029900090F83D30DBB2012B2FD1022380F83D307F
:1029A0000268D36843F00103D3600368154A934279
:1029B00018D002F50062934214D0B3F1804F11D0C9
:1029C000A2F5983293420DD002F58062934209D06D
:1029D00002F58062934205D01A6842F001021A6043
:1029E000002070479A6802F00702062A07D01A688A
:1029F00042F001021A600020704701207047002059
:102A0000704700BF002C0140704770477047704707
:102A1000704770B504460368DE681D6915F0020F43
:102A200010D016F0020F0DD06FF002021A610123D0
:102A3000037703689B6913F0030F5ED0FFF7E6FF8F
:102A40000023237715F0040F12D016F0040F0FD0D7
:102A500023686FF004021A610223237723689B69BD
:102A600013F4407F4FD02046FFF7D0FF0023237799
:102A700015F0080F12D016F0080F0FD023686FF072
:102A800008021A61042323772368DB6913F0030F1C
:102A900040D02046FFF7BAFF0023237715F0100F30
:102AA00012D016F0100F0FD023686FF010021A61C9
:102AB000082323772368DB6913F4407F31D0204655
:102AC000FFF7A4FF0023237715F0010F02D016F0C3
:102AD000010F2DD115F0800F02D016F0800F2FD1ED
:102AE00015F0400F02D016F0400F31D115F0200F35
:102AF00002D016F0200F33D170BDFFF786FF2046BD
:102B0000FFF785FF9CE72046FFF77FFF2046FFF792
:102B10007EFFABE72046FFF778FF2046FFF777FF01
:102B2000BAE72046FFF771FF2046FFF770FFC9E7BD
:102B300023686FF001021A612046FFF76FF8C9E7BA
:102B400023686FF080021A61204600F02EFAC7E772
:102B500023686FF040021A612046FFF759FFC5E76E
:102B600023686FF020021A61204600F01DFAC3E7C7
:102B70000368284A904212D002F5006290420ED0BB
:102B8000B0F1804F0BD0A2F59832904207D002F5F9
:102B90008062904203D002F58062904203D123F01C
:102BA00070034A6813431B4A904212D002F5006238
:102BB00090420ED0B0F1804F0BD0A2F598329042E7
:102BC00007D002F58062904203D002F58062904205
:102BD00003D123F44073CA68134323F080034A6986
:102BE000134303608B68C3620B688362094B98428E
:102BF00003D003F50063984201D10B6903630123FD
:102C00004361036913F0010F03D0036923F001034B
:102C100003617047002C014040B310B5044690F8A2
:102C20003D30F3B1022384F83D30214651F8040BC6
:102C3000FFF79EFF012384F8463084F83E3084F885
:102C40003F3084F8403084F8413084F8423084F8D2
:102C5000433084F8443084F8453084F83D30002017
:102C600010BD80F83C30FFF741FADBE701207047E8
:102C700040B310B5044690F83D30F3B1022384F818
:102C80003D30214651F8040BFFF772FF012384F811
:102C9000463084F83E3084F83F3084F8403084F881
:102CA000413084F8423084F8433084F8443084F86A
:102CB000453084F83D30002010BD80F83C30FFF7EF
:102CC000A3FEDBE70120704730B4036A026A22F0FA
:102CD000100202624468826922F4E6420D6842EA08
:102CE000052223F020038D6843EA0513114DA84205
:102CF00003D005F50065A84206D123F08003CD6816
:102D000043EA051323F040030A4DA84203D005F51A
:102D10000065A84207D124F440644D6944EA850463
:102D20008D6944EA8504446082614A688263036273
:102D300030BC7047002C014038B590F83C30012B76
:102D400066D004460D46012380F83C300C2A5AD840
:102D5000DFE802F0075959591B5959593059595947
:102D600044000068FFF752FD2268936943F00803AE
:102D700093612268936923F0040393612268936945
:102D800029690B43936100203EE00068FFF79CFF38
:102D90002268936943F4006393612268936923F482
:102DA0008063936122689369296943EA01239361EF
:102DB000002029E00068FFF75DFD2268D36943F039
:102DC0000803D3612268D36923F00403D361226826
:102DD000D36929690B43D361002015E00068FFF730
:102DE00081FD2268D36943F40063D3612268D3690B
:102DF00023F48063D3612268D369296943EA0123FC
:102E0000D361002000E00120002384F83C3038BD6D
:102E10000220FCE710B4846824F47F4C42EA0322C9
:102E20000A4342EA0C02826010BC704790F83C30C2
:102E3000012B78D010B50446012380F83C300223E2
:102E400080F83D300268936823F47F4323F07703D2
:102E500093600B68602B4CD029D8402B54D00CD9F0
:102E6000502B22D1CA6849680068FFF763FD5021E2
:102E70002068FFF784FD002005E0202B0DD009D944
:102E8000302B0AD00120012384F83D30002384F840
:102E90003C3010BD0BB1102B05D119462068FFF74F
:102EA0006EFD0020EFE70120EDE70120EBE7B3F531
:102EB000805F34D0B3F5005F0CD1CB684A68896875
:102EC0000068FFF7A7FF2268936843F4804393608C
:102ED0000020D8E7702B24D1CB684A688968006845
:102EE000FFF798FF2268936843F077039360002010
:102EF000C9E7CA6849680068FFF72EFD60212068AD
:102F0000FFF73DFD0020BEE7CA6849680068FFF78B
:102F100011FD40212068FFF732FD0020B3E70020BB
:102F2000B1E70120AFE702207047000090F83C3085
:102F3000012B34D010B4012380F83C30022380F8F8
:102F40003D3003685A689C6822F0700C0A6842EAB7
:102F50000C025A600368134A934212D002F50062D1
:102F600093420ED0B3F1804F0BD0A2F5983293422A
:102F700007D002F58062934203D002F5806293424B
:102F800004D124F080044A6814439C60012380F833
:102F90003D30002380F83C30184610BC70470220BA
:102FA000704700BF002C01407047704730B482B0BA
:102FB0000022019290F82420012A00F0918003461B
:102FC000012280F824204A68062A2DD80468606B04
:102FD00002EB8202053A4FF01F0C0CFA02FC20EAC9
:102FE0000C000D6805FA02F2024362630A68092ABE
:102FF0003AD91C68E06802EB42021E3A4FF0070C17
:103000000CFA02FC20EA0C008D6805FA02F2024379
:10301000E2600A68103A012A36D90020002283F8BB
:10302000242002B030BC70470C2A0ED80568286BEB
:1030300002EB8202233A1F24944020EA04000C6829
:1030400004FA02F202432A63D0E70568E86A02EB59
:103050008202413A1F24944020EA04000C6804FADA
:1030600002F20243EA62C1E71C68206902EB4202F5
:103070004FF0070C0CFA02FC20EA0C008D6805FAF0
:1030800002F202432261C4E71A681648824205D060
:103090009A6A42F020029A620120BFE7906810F419
:1030A000000F1BD1906840F4000090600A68102A5D
:1030B00001D00020B2E70C4A12680C49A1FB0212B1
:1030C000920C02EB82025200019202E0019A013A54
:1030D0000192019A002AF9D100209FE700209DE784
:1030E00002209EE7002401406C00002083DE1B4389
:1030F00038B503689A6812F0010F01D1002038BD7D
:1031000004469A6822F001029A6000F0CFF8054662
:1031100023689B6813F0010F13D000F0C7F8431B1E
:10312000022BF5D923689B6813F0010FF0D0A36A36
:1031300043F01003A362E36A43F00103E36201205A
:10314000DDE70020DBE70000002800F0888070B594
:103150000446836A002B52D02046FFF7C9FFA36ABA
:1031600013F0100375D1002873D1A26A22F488529B
:1031700022F0020242F00202A26262682668394925
:103180008E4242D0E1690A43217B42EA4102A568AE
:10319000B5F5807F02D0012D3ED01D4694F814C0B5
:1031A000BCF1010F3BD0716821F469412943716082
:1031B0002568AE682C4931401143A960A168B1F57A
:1031C000807F01D0012902D12369013B1B052568BD
:1031D000E96A21F470010B43EB6223689968234B81
:1031E0000B409A422CD0A36A23F0120343F0100341
:1031F000A362E36A43F00103E36201202EE0C362AD
:1032000080F82430FEF7B2FEA6E7E169B1F5402F61
:10321000B9D14FF40021B6E74FF48075BEE731B95C
:10322000A169013945EA413141F40065BBE7A16A72
:1032300041F02001A162E16A41F00101E162B2E7DF
:103240000023E362A36A23F0030343F00103A362B4
:1032500004E0A36A43F01003A362012070BD0120C3
:10326000704700BF003C0140FDF7E1FFFE0E1FFF6D
:1032700008B5074A136843F010031360032000F0F9
:10328000C9FF0F20FFF778FAFFF74CFA002008BDBE
:1032900000200240034A1168034B1B780B44136063
:1032A000704700BF5407002064000020014B1868DD
:1032B000704700BF5407002038B50446FFF7F6FFFB
:1032C0000546B4F1FF3F02D0044B1B781C44FFF7C6
:1032D000EDFF401BA042FAD338BD00BF64000020C0
:1032E00082B0084B1B68084AA2FB03235B0A00FB61
:1032F00003F3019300BF019B5A1E0192002BF9D1E9
:1033000002B070476C000020D34D6210002800F01E
:10331000F18170B582B00446036813F0010F2CD020
:10332000994B5B6803F00C03042B1DD0964B5B6834
:1033300003F00C03082B12D06368B3F5803F41D033
:10334000002B55D103F1804303F504331A6822F4AE
:1033500080321A601A6822F480221A6037E08A4BA1
:103360005B6813F4803FE7D0874B1B6813F4003F82
:1033700003D06368002B00F0BF81236813F0020FB5
:1033800075D0814B5B6813F00C0F5FD07E4B5B6890
:1033900003F00C03082B54D02369002B00F08A8023
:1033A0007A4B01221A60FFF781FF0546764B1B68B6
:1033B00013F0020F75D1FFF779FF401B0228F5D9F2
:1033C00003209EE1704A136843F4803313606368FE
:1033D00043B3FFF76BFF05466B4B1B6813F4003FCD
:1033E000CBD1FFF763FF401B6428F5D9032088E1A8
:1033F000B3F5A02F09D0644B1A6822F480321A600A
:103400001A6822F480221A60E1E703F18043A3F5F1
:103410003C331A6842F480221A601A6842F48032FF
:103420001A60D4E7FFF742FF0546574B1B6813F4B9
:10343000003FA2D0FFF73AFF401B6428F5D90320D4
:103440005FE1514B5B6813F4803FA5D14E4B1B6885
:1034500013F0020F03D02369012B40F04F814A4A39
:10346000136823F0F803616943EAC103136023681A
:1034700013F0080F33D0A369002B5CD0434B01221B
:10348000C3F88024FFF712FF05463F4B5B6A13F039
:10349000020F21D1FFF70AFF401B0228F5D90320B4
:1034A0002FE1394A136823F0F803616943EAC10345
:1034B0001360DCE7354B00221A60FFF7F7FE054684
:1034C000314B1B6813F0020FD1D0FFF7EFFE401B0A
:1034D0000228F5D9032014E10120FFF701FF23683A
:1034E00013F0040F00F09680274BDB6913F0805F28
:1034F00034D1254BDA6942F08052DA61DB6903F09E
:1035000080530193019B0125214B1B6813F4807F9D
:1035100026D0E368012B3DD0002B53D103F180432B
:1035200003F504331A6A22F001021A621A6A22F0C1
:1035300004021A6233E0154B0022C3F88024FFF71F
:10354000B5FE0546104B5B6A13F0020FC7D0FFF7BC
:10355000ADFE401B0228F5D90320D2E00025D3E7B9
:103560000B4A136843F480731360FFF79FFE06460F
:10357000074B1B6813F4807FCBD1FFF797FE801BAE
:103580006428F5D90320BCE000100240000042424C
:10359000007000405F4A136A43F001031362E3685E
:1035A00033B3FFF783FE06465A4B1B6A13F0020F34
:1035B0002FD1FFF77BFE801B41F288339842F3D96D
:1035C00003209EE0052B09D0524B1A6A22F001021B
:1035D0001A621A6A22F004021A62E0E74D4B1A6A74
:1035E00042F004021A621A6A42F001021A62D6E735
:1035F000FFF75CFE0646474B1B6A13F0020F08D02C
:10360000FFF754FE801B41F288339842F3D9032020
:1036100077E0E5B9E369002B72D03E4A526802F0C8
:103620000C02082A56D0022B17D03B4B00221A66F8
:10363000FFF73CFE0446374B1B6813F0007F47D072
:10364000FFF734FE001B0228F5D9032059E0314A68
:10365000D36923F08053D361DCE72F4B00221A6635
:10366000FFF724FE05462B4B1B6813F0007F06D0A6
:10367000FFF71CFE401B0228F5D9032041E0236A16
:10368000B3F5803F1AD023494B6823F47413226AA0
:10369000606A024313434B601F4B01221A66FFF717
:1036A00005FE04461B4B1B6813F0007F0ED1FFF78D
:1036B000FDFD001B0228F5D9032022E0154A5368BE
:1036C00023F40033A1680B435360DCE7002018E0CB
:1036D000002016E0012B16D00E4B5B6803F48031FE
:1036E000226A914211D103F47013626A93420ED19F
:1036F000002006E001207047012002E0012000E0E8
:10370000002002B070BD0120FBE70120F9E7012095
:10371000F7E700BF00100240000042420F4B5B6819
:1037200003F00C02082A01D00D487047C3F383420E
:103730000C49885C13F4803F0BD0084B5B68C3F3E3
:103740004043094AD35C064A02FB00F0B0FBF3F0A9
:103750007047064B03FB00F0704700BF00100240AB
:1037600000127A009C850008AC85000800093D0025
:10377000002800F0A08070B50D460446524B1B682F
:1037800003F007038B420BD24F4A136823F0070361
:103790000B431360136803F007038B4240F08D80E6
:1037A000236813F0020F17D013F0040F04D0474A18
:1037B000536843F4E0635360236813F0080F04D0A8
:1037C000424A536843F460535360404A536823F0BD
:1037D000F003A1680B435360236813F0010F31D04D
:1037E0006368012B20D0022B25D0384A126812F0D2
:1037F000020F64D035494A6822F0030213434B603C
:10380000FFF754FD0646314B5B6803F00C0362681A
:10381000B3EB820F16D0FFF749FD801B41F28833CE
:103820009842F0D9032045E0284A126812F4003F7C
:10383000E0D101203EE0254A126812F0007FD9D184
:10384000012037E0204B1B6803F00703AB420AD985
:103850001D4A136823F007032B431360136803F01A
:103860000703AB422DD1236813F0040F06D0174A8B
:10387000536823F4E063E1680B435360236813F05B
:10388000080F07D0114A536823F46053216943EAB3
:10389000C1035360FFF742FF0C4B5B68C3F3031394
:1038A0000B4AD35CD8400B4B18600B4B1868FEF7E3
:1038B00063FF002070BD012070470120FAE701205E
:1038C000F8E70120F6E700BF0020024000100240A8
:1038D000B08500086C00002068000020014B1868CB
:1038E000704700BF6C00002008B5FFF7F7FF044BDE
:1038F0005B68C3F30223034AD35CD84008BD00BF12
:1039000000100240C085000808B5FFF7E7FF044B30
:103910005B68C3F3C223034AD35CD84008BD00BF31
:1039200000100240C08500080F2303600B4B5A684B
:1039300002F0030242605A6802F0F00282605A68A4
:1039400002F4E062C2605B68DB0803F4E0630361D9
:10395000034B1B6803F007030B6070470010024025
:103960000020024070B582B00446036813F0010FD6
:1039700036D03F4BDB6913F0805F49D13C4BDA69AD
:1039800042F08052DA61DB6903F080530193019BBE
:103990000125384B1B6813F4807F3BD0344B1B6AE6
:1039A00013F4407313D0626802F440729A420ED04E
:1039B0002F4A136A23F440702F490126C1F840644E
:1039C0000026C1F84064106213F0010F36D1284A76
:1039D000136A23F4407361680B431362002D3ED1D8
:1039E000236813F0020F06D0214A536823F44043A2
:1039F000A1680B435360236813F0100F34D01C4AA6
:103A0000536823F4800361690B43536000202CE06A
:103A10000025BEE7174A136843F480731360FFF76D
:103A200045FC0646134B1B6813F4807FB6D1FFF7A5
:103A30003DFC801B6428F5D9032016E0FFF736FC17
:103A400006460B4B1B6A13F0020FC0D1FFF72EFC8A
:103A5000801B41F288339842F3D9032005E0D369F3
:103A600023F08053D361BBE7002002B070BD00BFDC
:103A700000100240007000400000424270B582B069
:103A80000024A446B0E0874DAA4210D007D9864D45
:103A9000AA420CD005F58035AA4208D013E0A5F55E
:103AA0008015AA4203D005F57025AA4207D18A687D
:103AB000002A62D0012A5BD04361082403E0A5F507
:103AC0008015AA42F3D0BEF1FF0F58D80646BEF1CA
:103AD000FF0F56D84FEA8C0233680F25954023EA32
:103AE000050304FA02F2134333604B6813F0805F5E
:103AF00078D06E4B9A6942F001029A619B6903F09B
:103B000001030193019B4FEA9C02951C684B53F8FB
:103B100025600CF003039D000F23AB4026EA03064B
:103B2000644B984233D003F58063984200F098804C
:103B300003F58063984200F0958003F58063984216
:103B400000F0928003F58063984200F08F8003F5C7
:103B50008063984219D006231AE0CC68B3E7CC689A
:103B60000434B0E7CC680834ADE7CC680C34AAE77D
:103B700003610824A7E70024A5E70424A3E7061DA2
:103B8000A5E7ACF108029200A6E7052300E00023B8
:103B9000AB4033430232464D45F822304B6813F4B4
:103BA000801F65D0444A936843EA0E0393604B68D4
:103BB00013F4001F62D0404AD36843EA0E03D36077
:103BC0004B6813F4003F5FD03B4A536843EA0E034F
:103BD00053604B6813F4803F5CD0374A136843EA64
:103BE0000E0313600CF1010C0A6832FA0CF357D083
:103BF000012303FA0CF302EA030E33EA0202F1D1C5
:103C00004A68122A3FF63FAF122A3FF65CAF01A581
:103C100055F822F0AF3A00085B3B0008653B00080E
:103C2000773B0008C73A0008C73A0008C73A0008BF
:103C3000C73A0008C73A0008C73A0008C73A000860
:103C4000C73A0008C73A0008C73A0008C73A000850
:103C5000C73A0008C73A00085F3B00086B3B000802
:103C6000012395E7022393E7032391E704238FE7DA
:103C7000114A936823EA0E03936098E70E4AD368CB
:103C800023EA0E03D3609BE70B4A536823EA0E0333
:103C900053609EE7084A136823EA0E031360A1E706
:103CA00002B070BD00002210000031100010024070
:103CB0000000014000080140000401400AB1016118
:103CC0007047090401617047C36801EA030221EAF1
:103CD000030141EA024101617047000000283AD027
:103CE00010B4024600681D4B984229D81C4B03446F
:103CF0001C49A1FB03131B099B0013641A4BD363DC
:103D0000022382F82130016821F47F5121F0300133
:103D1000536894682343D468234314692343546944
:103D2000234394692343D46923430B430360002056
:103D30009063012382F8213082F8200010BC704784
:103D40000A4B03440749A1FB03131B099B0013649F
:103D5000074BD363D4E70120704700BF070402403C
:103D6000F8FFFDBFCDCCCCCC00000240F8FBFDBF7E
:103D70000004024090F82130DBB2022B06D004236D
:103D80008363002380F820300120704702681368A5
:103D900023F00E0313600268136823F0010313601D
:103DA000036CC16B012202FA03F34B6080F82120FF
:103DB000002380F8203018467047000008B590F8BE
:103DC0002130DBB2022B03D004238363012008BD22
:103DD0000268136823F00E0313600268136823F06F
:103DE0000103136003684C4A93424ED9783A9342D8
:103DF00024D01432934230D0143293422FD0143254
:103E000093422FD0143293422FD0143293422FD0AA
:103E1000143293422FD002F5627293422ED01432A4
:103E200093422DD0143293422CD01432934202D0BC
:103E30004FF4803203E04FF4805200E00122374B10
:103E40005A60012380F82130002380F82030436B32
:103E5000002B5ED098470020B9E71022EFE74FF41F
:103E60008072ECE74FF48052E9E74FF48032E6E7E6
:103E70004FF48012E3E74FF08072E0E70122DEE7C3
:103E80001022DCE74FF48072D9E7254A934224D010
:103E90001432934225D01432934224D014329342E8
:103EA00024D01432934224D01432934224D01432BA
:103EB000934224D002F56272934223D0143293428B
:103EC00022D01432934221D01432934202D04FF4C4
:103ED000803203E04FF4805200E00122114B5A601F
:103EE000AFE71022FAE74FF48072F7E74FF4805201
:103EF000F4E74FF48032F1E74FF48012EEE74FF031
:103F00008072EBE70122E9E71022E7E74FF48072C5
:103F1000E4E700205BE700BF8000024000040240AD
:103F2000080002400000024038B5C36B1A680468FC
:103F30002568016C04238B40134200F09B8015F030
:103F4000040F00F09780236813F0200F03D123683B
:103F500023F00403236003689A4A934246D9783ACF
:103F6000934224D01432934228D01432934227D063
:103F70001432934227D01432934227D01432934202
:103F800027D01432934227D002F56272934226D092
:103F90001432934225D01432934224D014329342E7
:103FA00002D04FF4802203E04FF4804200E004226C
:103FB000854B5A60C36A03B1984738BD4022F7E782
:103FC0004FF48062F4E74FF48042F1E74FF480222F
:103FD000EEE74FF48002EBE74FF08062E8E704225F
:103FE000E6E74022E4E74FF48062E1E7774A934254
:103FF00024D01432934225D01432934224D0143268
:10400000934224D01432934224D01432934224D0C9
:104010001432934224D002F56272934223D01432B8
:10402000934222D01432934221D01432934202D0D0
:104030004FF4802203E04FF4804200E00422644BFE
:104040005A60B7E74022FAE74FF48062F7E74FF48F
:104050008042F4E74FF48022F1E74FF48002EEE76C
:104060004FF08062EBE70422E9E74022E7E74FF4F4
:104070008062E4E702238B40134200F0AB8015F02E
:10408000020F00F0A780236813F0200F06D12368E9
:1040900023F00A032360012380F821300368494A92
:1040A00093424BD9783A934224D0143293422DD084
:1040B000143293422CD0143293422CD014329342B7
:1040C0002CD0143293422CD0143293422CD002F5CF
:1040D000627293422BD0143293422AD0143293420C
:1040E00029D01432934202D04FF4003203E04FF44F
:1040F000005200E00222344B5A60002380F8203046
:10410000836A002B3FF459AF984756E72022F2E725
:104110004FF40072EFE74FF40052ECE74FF4003237
:10412000E9E74FF40012E6E74FF00072E3E70222FE
:10413000E1E72022DFE74FF40072DCE7234A9342F5
:1041400024D01432934225D01432934224D0143216
:10415000934224D01432934224D01432934224D078
:104160001432934224D002F56272934223D0143267
:10417000934222D01432934221D01432934202D07F
:104180004FF4003203E04FF4005200E00222104BE3
:104190005A60B2E72022FAE74FF40072F7E74FF4D3
:1041A0000052F4E74FF40032F1E74FF40012EEE76B
:1041B0004FF00072EBE70222E9E72022E7E74FF435
:1041C0000072E4E780000240000402400800024060
:1041D00000000240082303FA01F111423FF4EDAE62
:1041E00015F0080F3FF4E9AE236823F00E032360B7
:1041F000026CC16B012303FA02F24A60836380F808
:104200002130002380F82030036B002B3FF4D5AE23
:104210009847D2E6074AD36823F4E0631B041B0CDB
:10422000000200F4E060034343F0BF6343F4003353
:10423000D360704700ED00E000B5194BDB68C3F3B5
:104240000223C3F1070CBCF1040F28BF4FF0040C8C
:1042500003F1040EBEF1060F18D9033B4FF0FF3EE9
:104260000EFA0CFC21EA0C0199400EFA03F322EA43
:104270000303194300280BDB0901C9B200F16040B8
:1042800000F5614080F800135DF804FB0023E5E7CA
:1042900000F00F000901C9B2024B1954F4E700BF46
:1042A00000ED00E014ED00E0002807DB00F01F0245
:1042B000400901239340024A42F82030704700BF72
:1042C00000E100E003685A6912F4806F01D1002018
:1042D00070476FF480625A6100230363202280F8E4
:1042E0003D2080F83E30026C42F00402026480F807
:1042F0003C30012070472DE9F04106460C46174638
:1043000098463BE0FEF7D2FF069BC01A404502D814
:10431000B8F1000F32D1012D18D033689B6924EA1F
:1043200003039BB2B3FA83F35B099F4226D10023B8
:104330003363202286F83D2086F83E30326C42F00E
:104340002002326486F83C30012027E033685B6944
:1043500024EA03039BB2B3FA83F35B09E5E733680E
:104360005B6924EA030C1FFA8CFCBCFA8CFC4FEA54
:104370005C1C674511D1B8F1FF3FC3D1C4F30745B9
:10438000012DECD033689B6924EA030C1FFA8CFCE6
:10439000BCFA8CFC4FEA5C1CEBE70020BDE8F08126
:1043A0002DE9F84305460E469046994653E01A68B3
:1043B00042F400721A602B686FF480625A61002325
:1043C0002B63202285F83D2085F83E302A6C42F090
:1043D00004022A6485F83C3001204AE0FEF766FFBB
:1043E000A0EB0900404502D8B8F1000F33D1012FEE
:1043F00017D02B689B6926EA03039BB2003B18BFCA
:10440000012343B300232B63202285F83D2085F848
:104410003E302A6C42F020022A6485F83C300120AC
:1044200027E02B685B6926EA03039BB2003B18BFB9
:104430000123E6E72B689C6926EA0404A4B2003C49
:1044400018BF0124A4B12B685A6912F4806FAED151
:10445000B8F1FF3FC2D1C6F30747012FEAD12B685D
:104460005C6926EA0404A4B2003C18BF0124E9E711
:104470000020BDE8F88370B504460D461646236853
:104480005B6913F0800F21D12046FFF71BFFF8B9BD
:10449000B5F1FF3FF3D0FEF709FF801BA84201D81A
:1044A000002DECD123685B6913F0800FE7D1002366
:1044B0002363202284F83D2084F83E30226C42F0B1
:1044C0002002226484F83C30012000E0002070BD0E
:1044D0000120FCE72DE9F04385B004460D469146E6
:1044E0001F46DDF830800D9E0368196841F4807125
:1044F00019600096434600224FF00111FFF7FBFEC2
:1045000060B9236805F0FE051D6133464246264921
:104510002046FFF745FF68B1012008E023681B68CB
:1045200013F4807F02D04FF400732364032005B09E
:10453000BDE8F0830023039323685A6903929B69C3
:104540000393039B324641462046FFF794FF30B960
:10455000012F0FD123685FFA89F61E61E7E7236C0C
:10456000042B01D00120E2E72268136843F40073B2
:104570001360F7E723684FEA19221A613246414671
:104580002046FFF778FF20B923685FFA89F61E619D
:10459000CDE7236C042B01D00120C8E72268136803
:1045A00043F400731360F7E70200010070B504469E
:1045B0000D46164623685B6913F0040F21D120468F
:1045C000FFF780FEF8B9B5F1FF3FF3D0FEF76EFEBE
:1045D000801BA84201D8002DECD123685B6913F041
:1045E000040FE7D100232363202284F83D2084F8C0
:1045F0003E30226C42F02002226484F83C300120DC
:1046000000E0002070BD0120FCE70000002800F061
:10461000CC8070B5044690F83D30002B77D0242331
:1046200084F83D302268136823F001031360226888
:10463000136843F4004313602268136823F40043B3
:104640001360FFF751F962685A4B9A4264D85A4B8B
:1046500098428CBF00230123002B40F0A8805749CB
:10466000A1FB00318B0C25686A6822F03F0242EA08
:1046700091426A6021680A6A22F03F0266684D4DE5
:10468000AE424FD8013313430B622168CA6922F44A
:104690004F4222F0FF026668464B9E424CD8431EB2
:1046A0007600B3FBF6F3013340F6FC70034278D09A
:1046B000C3F30B031343CB6121680B6823F0C003E2
:1046C000E269206A024313430B6021688B6823F47C
:1046D000034323F0FF032269E068024313438B6026
:1046E0002168CB6823F0FF036269A069024313438A
:1046F000CB602268136843F001031360002020643C
:10470000202384F83D30206384F83E0070BD80F89B
:104710003C30FDF7B9FC82E7294B98428CBF00235F
:10472000012399E74FF4967505FB03F3254DA5FB8F
:1047300003539B090133A6E7A368BBB9451E06EBEB
:10474000460CB5FBFCF50135C5F30B05B5FA85F54F
:104750006D0945BBC3B9013806EB4603B0FBF3F363
:104760000133C3F30B0343F40043A3E7451E06EBF9
:10477000860C0CEB8C0CB5FBFCF50135C5F30B0579
:10478000B5FA85F56D09E4E7013806EB860303EB1E
:104790008303B0FBF3F30133C3F30B0343F4404350
:1047A00088E7042386E7012384E70120704701207E
:1047B000ACE700BFA08601007F841E0083DE1B43A0
:1047C000FF083D00D34D62102DE9F04383B004464D
:1047D0000F46904699460C9EFEF768FD054694F8F4
:1047E0003D00C0B2202803D0022003B0BDE8F08312
:1047F0000095192301224B492046FFF77CFD002834
:1048000040F0898094F83C30012B00F08680012331
:1048100084F83C3023681A6812F0010F03D11A683B
:1048200042F001021A602268136823F400631360E7
:10483000212384F83D30402384F83E300023236454
:104840000A9B6362BDF82C306385638D2385364BEC
:10485000E362019500964B46424639462046FFF7F3
:1048600039FE00285BD1238D002B35D02A463146F6
:104870002046FFF700FE20BB626A236812781A61A7
:10488000626A531C6362218D013989B22185638D6F
:104890009BB2013B9BB263852368586910F0040FFB
:1048A000E1D00029DFD052781A61636A0133636274
:1048B000238D013B2385638D9BB2013B9BB26385B6
:1048C000D1E7236C042B01D001208EE72268136806
:1048D00043F400731360F7E72A4631462046FFF79A
:1048E00065FE50B1236C042B01D001207DE72268C6
:1048F000136843F400731360F7E72268136843F406
:1049000000731360202384F83D30002384F83E3088
:1049100084F83C3069E7022067E7022065E7012060
:1049200063E700BF020010000000FFFF026802F111
:104930000C0353E8003F23F490730C3242E800313B
:104940000029F3D1026802F1140353E8003F23F079
:104950000103143242E800310029F3D1036B012B2B
:1049600005D0202380F8423000230363704702689B
:1049700002F10C0353E8003F23F010030C3242E82D
:1049800000310029F3D1ECE790F84130DBB2212B64
:1049900001D0022070478368B3F5805F17D0036AA7
:1049A0005A1C02621A7803685A60C38C9BB2013B9E
:1049B0009BB2C3844BB90268D36823F08003D360F1
:1049C0000268D36843F04003D36000207047036956
:1049D000002BE4D1036A1B880268C3F30803536009
:1049E000036A02330362E0E710B504460268136904
:1049F00023F44053C1680B43136183680269134376
:104A000042691A430168CB6823F4B05323F00C03C6
:104A10001343CB600268536923F4407381690B43ED
:104A200053610268134B9A4220D0FEF75DFF0246A5
:104A300002EB820202EB820263689B00B2FBF3F29C
:104A40000D48A0FB02314909642303FB11231B011C
:104A50003233A0FB03235B0903F0F00202EB0112E7
:104A600003F00F03216813448B6010BDFEF74CFF69
:104A70000246DDE7003801401F85EB512DE9F04388
:104A800083B005460E4617469946DDF828802C6807
:104A9000246836EA04030CBF4FF0010C4FF0000C01
:104AA000BC4528D1B8F1FF3FF1D0FEF7FFFBA0EBEA
:104AB0000900404523D8B8F1000F22D02B68DA68EE
:104AC00012F0040FE3D0802EE1D0402EDFD01A6820
:104AD00012F0080FDBD0002401941A6801925B6881
:104AE0000193019B2846FFF721FF08236B6485F89B
:104AF0004040012000E0002003B0BDE8F083032027
:104B0000FAE70320F8E760B310B5044690F84130A7
:104B100013B3242384F841302268D36823F400536C
:104B2000D3602046FFF760FF2268136923F49043A7
:104B300013612268536923F02A0353612268D36802
:104B400043F40053D36000206064202384F8413094
:104B500084F84230606310BD80F84030FDF798FB68
:104B6000D7E7012070472DE9F04182B01E4690F84A
:104B70004130DBB2202B56D104460D469046002929
:104B800055D00AB901204FE000234364212380F867
:104B90004130FEF78BFB0746A4F82480A4F826805A
:104BA000A368B3F5805F02D04FF0000814E02369DA
:104BB0002BB34FF000080FE0202384F8413003208E
:104BC00032E038F8023B2268C3F308035360E28CFA
:104BD00092B2013A92B2E284E38C9BB293B1009616
:104BE0003B46002280212046FFF748FF0028E3D102
:104BF000002DE6D015F8012B23685A60E7E7A84698
:104C00000025E9E700963B46002240212046FFF7B9
:104C100035FF18B9202384F8413005E0202384F8BB
:104C20004130032000E0022002B0BDE8F081012005
:104C3000FAE7704708B50168CA6822F04002CA6006
:104C4000202280F84120FFF7F4FF002008BD7047C4
:104C5000704708B5406A0023C385C384FFF7F8FF97
:104C600008BD704790F84230DBB2222B69D18368CF
:104C7000B3F5805F4FD0826AB3F5805F04D0002B1C
:104C800056D10369002B53D103685B681370836AA4
:104C900001338362C38D9BB2013B9BB2C385002B62
:104CA00051D100B583B00268D36823F02003D360EC
:104CB0000268D36823F48073D3600268536923F0D9
:104CC00001035361202380F8423000234363036BC8
:104CD000012B33D100230363026802F10C0353E874
:104CE000003F23F010030C3242E800310029F3D1D9
:104CF00003681A6812F0100F06D0002201921A6899
:104D000001925B680193019B818DFFF7AAFF002050
:104D100003B05DF804FB0269002AACD1826A036823
:104D20005B68C3F308031380836A02338362B1E7CD
:104D300003685B6803F07F031370A8E7FFF787FF42
:104D4000E5E70220704700207047000030B583B0CF
:104D5000044602681368D068516913F00F0505D145
:104D600013F0200F02D010F0200F19D12DB111F047
:104D7000010119D110F4907F16D1216B01297DD04A
:104D800013F0800F03D010F0800F40F0188113F063
:104D9000400F03D010F0400F40F0158103B030BD3C
:104DA0002046FFF75FFFF9E713F0010F06D010F47C
:104DB000807F03D0626C42F00102626413F0040F42
:104DC00004D019B1626C42F00202626413F0020F67
:104DD00004D019B1626C42F00402626413F0080F4F
:104DE00007D010F0200F00D119B1626C42F0080218
:104DF0006264626C002AD1D013F0200F02D010F050
:104E0000200F29D123685B6903F04003626C12F024
:104E1000080F00D163B32046FFF788FD23685B6964
:104E200013F0400F20D0226802F1140353E8003F32
:104E300023F04003143242E800310029F3D1E36B40
:104E400073B1634A5A63E06BFEF7B8FF0028A5D040
:104E5000E06B436B9847A1E72046FFF703FFD1E7DC
:104E60002046FFF7F5FE99E72046FFF7F1FE95E7AC
:104E70002046FFF7EDFE002363648FE713F0100F69
:104E80003FF47EAF10F0100F3FF47AAF0023019390
:104E90001368019353680193019B536913F0400F0A
:104EA00051D0E26B13685B689BB2002B3FF476AF86
:104EB000A18D99427FF672AFE3859369202B37D09D
:104EC000226802F10C0353E8003F23F480730C3294
:104ED00042E800310029F3D1226802F1140353E8BB
:104EE000003F23F00103143242E800310029F3D1DE
:104EF000226802F1140353E8003F23F04003143208
:104F000042E800310029F3D1202384F84230002305
:104F10002363226802F10C0353E8003F23F01003DF
:104F20000C3242E800310029F3D1E06BFEF722FF9A
:104F300002236363A18DE38D9BB2C91A89B2204617
:104F4000FFF78FFE2AE7A18DE38D9BB2C91A89B2C4
:104F5000E38D9BB2002B3FF421AF00293FF41EAF3D
:104F6000226802F10C0353E8003F23F490730C32E3
:104F700042E800300028F3D1226802F1140353E81C
:104F8000003F23F00103143242E800300028F3D13F
:104F9000202384F8423000232363226802F10C03AB
:104FA00053E8003F23F010030C3242E800300028A1
:104FB000F3D1022363632046FFF753FEEEE620465B
:104FC000FFF7E2FCEAE62046FFF734FEE6E600BF24
:104FD000534C0008704700F1080343604FF0FF3264
:104FE0008260C36003610023036070470023036194
:104FF000704743684B609A688A60516099600861A5
:10500000036801330360704730B40D68B5F1FF3FAA
:1050100011D000F108031C465B681A68AA42FAD94D
:1050200063684B6099608C6061600861036801335C
:10503000036030BC70470469F2E703694168826825
:105040008A60416851605A68824206D0002202613B
:105050001A68013A1A601868704782685A60F5E762
:1050600010B5044601F0AEFCA26BE36B9A4204D08B
:10507000002401F0C9FC204610BD0124F9E710B559
:10508000044601F09FFCA36B23B9012401F0BCFC92
:10509000204610BD0024F9E770B504461546866B1E
:1050A000026C5AB903681BB100200136A66370BDBB
:1050B000806800F0D5FF0023A360F6E76DB9406873
:1050C000FBF704F9226C636813446360A26893429F
:1050D00019D3236863602846E7E7C068FBF7F6F852
:1050E000226C5142E3689B1AE3602268934202D229
:1050F000A3680B44E360022D01D00020D5E726B160
:10510000013E0020D1E72846CFE70020CDE708B5D3
:105110000346026C62B10846D9681144D960D3F8DD
:1051200008C0614501D31968D960D968FBF7CEF88A
:1051300008BD38B5054601F045FC95F8454064B218
:1051400001E0013C64B2002C0ADD6B6A43B105F159
:10515000240000F0DBFE0028F3D000F06BFFF0E746
:10516000FF2385F8453001F04FFC01F02BFC95F84A
:10517000444064B201E0013C64B2002C0ADD2B69BA
:1051800043B105F1100000F0C1FE0028F3D000F09B
:1051900051FFF0E7FF2385F8443001F035FC38BDBE
:1051A00038B5E0B10D46044601F00CFC2368E26B13
:1051B000216C01FB0230A0600020A0636360013A13
:1051C00002FB0133E360FF2384F8443084F8453068
:1051D000FDB9236963B901F017FC012038BD4FF018
:1051E000500383F31188BFF36F8FBFF34F8FFEE738
:1051F00004F1100000F08AFE0028ECD04FF0E0230C
:105200004FF08052C3F8042DBFF34F8FBFF36F8F61
:10521000E1E704F11000FFF7DEFE04F12400FFF7E0
:10522000DAFED8E738B51D46049C0B4649B9246020
:10523000E063236401212046FFF7B2FF84F84C505D
:1052400038BD2260F4E740B94FF0500383F3118872
:10525000BFF36F8FBFF34F8FFEE710B584B01C46CE
:10526000844653B192B189B94FF0500383F311884A
:10527000BFF36F8FBFF34F8FFEE74FF0500383F301
:105280001188BFF36F8FBFF34F8FFEE76AB15023D2
:105290000393039B502B13D04FF0500383F31188DB
:1052A000BFF36F8FBFF34F8FFEE70029EFD04FF0B2
:1052B000500383F31188BFF36F8FBFF34F8FFEE767
:1052C000039B012384F8463000949DF81830604613
:1052D000FFF7A8FF204604B010BDF0B585B00192DD
:1052E00088B10F461D460446B1B1022D20D1E36BB3
:1052F000012B1DD04FF0500383F31188BFF36F8F44
:10530000BFF34F8FFEE74FF0500383F31188BFF3D5
:105310006F8FBFF34F8FFEE7036C002BE5D04FF08C
:10532000500383F31188BFF36F8FBFF34F8FFEE7F6
:1053300000F086FE064658B9019B002B48D04FF07E
:10534000500383F31188BFF36F8FBFF34F8FFEE7D6
:1053500000263DE02A4639462046FFF79DFE636A57
:105360007BB948B14FF0E0234FF08052C3F8042DD1
:10537000BFF34F8FBFF36F8F01F046FB012005B0E5
:10538000F0BD04F1240000F0C1FD0028F4D04FF07E
:10539000E0234FF08052C3F8042DBFF34F8FBFF3CB
:1053A0006F8FE9E701F030FB0020E8E702A800F08A
:1053B000F3FD012619E0002384F8443021E00023A6
:1053C00084F8453023E02046FFF7B3FE00F07EFC72
:1053D00001F0F8FAA26BE36B9A42BBD3022DB9D06D
:1053E000019B002BDED0002EE0D001F00DFB00F081
:1053F000D3FB01F0E7FA94F8442052B2B2F1FF3F38
:10540000D9D094F8452052B2B2F1FF3FD7D001F085
:10541000FBFA01A902A800F0CBFDD8B92046FFF79E
:105420001FFE0028CFD0019904F1100000F03AFDD2
:105430002046FFF77EFE00F049FC0028C8D14FF05F
:10544000E0234FF08052C3F8042DBFF34F8FBFF31A
:105450006F8FBDE72046FFF76CFE00F037FC0020A1
:105460008DE72DE9F84390B10F4616461C460546D8
:10547000B1B1022C20D1EB6B012B1DD04FF05003AA
:1054800083F31188BFF36F8FBFF34F8FFEE74FF0A9
:10549000500383F31188BFF36F8FBFF34F8FFEE785
:1054A000036C002BE5D04FF0500383F31188BFF35A
:1054B0006F8FBFF34F8FFEE701F06EFBEFF31189A3
:1054C0004FF0500383F31188BFF36F8FBFF34F8FFB
:1054D000AA6BEB6B9A4206D3022C04D0002089F30E
:1054E0001188BDE8F88395F845804FFA88F8AB6BD2
:1054F000224639462846FFF7CFFDB8F1FF3F06D0D8
:1055000008F101035BB285F845300120E7E76B6ADB
:105510000BB90120E3E705F1240000F0F7FC18B116
:1055200026B101203060DAE70120D8E70120D6E774
:10553000F0B585B0019290B10F460446C1B100F0BC
:105540007FFD064600BB019B002B5ED04FF0500351
:1055500083F31188BFF36F8FBFF34F8FFEE74FF0D8
:10556000500383F31188BFF36F8FBFF34F8FFEE7B4
:10557000036C002BE3D04FF0500383F31188BFF38B
:105580006F8FBFF34F8FFEE700263EE0394620467F
:10559000FFF7BDFD013DA563236923B901F034FA8E
:1055A000012005B0F0BD04F1100000F0AFFC0028B0
:1055B000F4D04FF0E0234FF08052C3F8042DBFF336
:1055C0004F8FBFF36F8FE9E701F01EFA0020E8E785
:1055D00002A800F0E1FC012621E0002384F8443019
:1055E00029E0002384F845302BE02046FFF7A1FD99
:1055F00000F06CFB09E02046FFF79BFD00F066FB26
:105600002046FFF73CFD00283FD101F0DBF9A56BF8
:10561000002DBBD1019B002BD6D0002ED8D001F09D
:10562000F3F900F0B9FA01F0CDF994F844305BB227
:10563000B3F1FF3FD1D094F845305BB2B3F1FF3FF7
:10564000CFD001F0E1F901A902A800F0B1FC0028D7
:10565000D1D12046FFF713FD0028C6D0019904F1EF
:10566000240000F01FFC2046FFF763FD00F02EFB36
:105670000028CAD14FF0E0234FF08052C3F8042D28
:10568000BFF34F8FBFF36F8FBFE7002089E70000A4
:105690000023072B0CD8074A52F833200AB10133F4
:1056A000F7E7044A42F8331002EBC303586070472F
:1056B000704700BF5807002070B504460D461646D7
:1056C00001F080F994F844305BB2B3F1FF3F0DD0A4
:1056D00094F845305BB2B3F1FF3F0BD001F094F981
:1056E000A36B5BB12046FFF724FD70BD002384F857
:1056F0004430EDE7002384F84530EFE73246294691
:1057000004F1240000F0E6FBECE70000084B1B6806
:105710001B6823B9074B4FF0FF321A607047044BE8
:105720001B68DB68DB685A68024B1A60704700BF71
:105730009C070020440C00202DE9F04780460D46D0
:1057400017469946089EDDF824A00A9C9200A521E0
:10575000206BFAF731FE236B07F18042013A03EB2D
:10576000820727F00707B5B34FF0000CBCF10F0F0D
:105770000BD815F80C2004EB0C0383F8342015F833
:105780000C3013B10CF1010CF0E7002384F8433026
:10579000372E00D93726E662E66400252565201DF0
:1057A000FFF724FC04F11800FFF720FC2461C6F188
:1057B0003806A6616462656584F858504A464146D9
:1057C000384601F0D5F82060BAF1000F01D0CAF8D0
:1057D0000040BDE8F087002384F83430D8E70000AB
:1057E00038B5002407E004EB840293000E48184407
:1057F000FFF7F1FB0134372CF5D90C4D2846FFF7A4
:10580000EAFB0B4C2046FFF7E6FB0A48FFF7E3FBF9
:105810000948FFF7E0FB0948FFF7DDFB084B1D6077
:10582000084B1C6038BD00BFA4070020180C0020E6
:105830002C0C0020500C00207C0C0020680C002058
:105840009C070020A007002010B5044601F0BAF81C
:10585000224A136801331360214B1B685BB1214B53
:105860001B686BB91E4B1B68DA6AE36A9A4207D859
:105870001B4B1C6004E01A4B1C601368012B29D0E1
:10588000194A1368013313606364E06A174B1B689D
:10589000984201D9154B186000EB8000211D144B74
:1058A00003EB8000FFF7A5FB01F0AEF80D4B1B6882
:1058B0007BB10B4B1B68DA6AE36A9A4209D24FF05C
:1058C000E0234FF08052C3F8042DBFF34F8FBFF396
:1058D0006F8F10BDFFF784FFD2E700BF040C0020DC
:1058E00098070020640C0020100C0020140C0020ED
:1058F000A407002010B5044690F8593063B1012B7D
:1059000011D0022B0ED04FF0500383F31188BFF358
:105910006F8FBFF34F8FFEE7006B00F0BBFF204699
:1059200000F0B8FF10BD00F0B5FFFBE70F4B1B68A0
:10593000D3B110B501F046F80D4BDB68DC68201DD3
:10594000FFF77BFB0B4A1368013B1360074A1368A0
:10595000013B136001F058F82046FFF7CBFF034BE3
:105960001B68002BE6D110BD704700BF080C00205B
:105970007C0C0020040C002008B5FFF7D7FF074B74
:105980001B68012BF9D94FF0E0234FF08052C3F888
:10599000042DBFF34F8FBFF36F8FEEE7A4070020F6
:1059A00070B504460D46174B1E68174B1868043037
:1059B000FFF743FBB4F1FF3F0DD03444124B1B689B
:1059C0005C60A64210D9114B18680F4B196804315E
:1059D000FFF71AFB70BD002DEFD00B4B1968043197
:1059E0000B48FFF706FBF5E70A4B1868064B1968EA
:1059F0000431FFF709FB084B1B68A342EAD9064BA9
:105A00001C60E7E7900C002098070020A00700200A
:105A1000680C00209C070020440C002030B587B0A3
:105A20000B9C7CB10C9DB5B15C250495049D5C2D4F
:105A30001AD04FF0500383F31188BFF36F8FBFF379
:105A40004F8FFEE74FF0500383F31188BFF36F8F42
:105A5000BFF34F8FFEE74FF0500383F31188BFF37E
:105A60006F8FBFF34F8FFEE7049D0C9D2C630224C4
:105A700085F8594000240394029505AC01940A9CD2
:105A80000094FFF759FE0C98FFF7DEFE059807B06B
:105A900030BD2DE9F04385B00746884614461E46C2
:105AA000900000F06FFE00B381465C2000F06AFEBB
:105AB0000546B0B1C0F83090E5B1002385F8593003
:105AC000039302950D9B01930C9B00933346224652
:105AD00041463846FFF730FE2846FFF7B5FE012065
